{
  "_format": "hh-sol-artifact-1",
  "contractName": "AgentVault",
  "sourceName": "contracts/AgentVault.sol",
  "abi": [
    {
      "inputs": [],
      "stateMutability": "nonpayable",
      "type": "constructor"
    },
    {
      "anonymous": false,
      "inputs": [
        {
          "indexed": true,
          "internalType": "address",
          "name": "sender",
          "type": "address"
        },
        {
          "indexed": false,
          "internalType": "uint256",
          "name": "amount",
          "type": "uint256"
        }
      ],
      "name": "FundsDeposited",
      "type": "event"
    },
    {
      "anonymous": false,
      "inputs": [
        {
          "indexed": true,
          "internalType": "uint256",
          "name": "taskId",
          "type": "uint256"
        },
        {
          "indexed": false,
          "internalType": "string",
          "name": "description",
          "type": "string"
        },
        {
          "indexed": false,
          "internalType": "address",
          "name": "recipient",
          "type": "address"
        },
        {
          "indexed": false,
          "internalType": "uint256",
          "name": "amount",
          "type": "uint256"
        }
      ],
      "name": "TaskCreated",
      "type": "event"
    },
    {
      "anonymous": false,
      "inputs": [
        {
          "indexed": true,
          "internalType": "uint256",
          "name": "taskId",
          "type": "uint256"
        },
        {
          "indexed": false,
          "internalType": "address",
          "name": "recipient",
          "type": "address"
        },
        {
          "indexed": false,
          "internalType": "uint256",
          "name": "amount",
          "type": "uint256"
        }
      ],
      "name": "TaskExecuted",
      "type": "event"
    },
    {
      "inputs": [
        {
          "internalType": "string",
          "name": "_description",
          "type": "string"
        },
        {
          "internalType": "address",
          "name": "_recipient",
          "type": "address"
        },
        {
          "internalType": "uint256",
          "name": "_amount",
          "type": "uint256"
        }
      ],
      "name": "createTask",
      "outputs": [
        {
          "internalType": "uint256",
          "name": "",
          "type": "uint256"
        }
      ],
      "stateMutability": "nonpayable",
      "type": "function"
    },
    {
      "inputs": [],
      "name": "deposit",
      "outputs": [],
      "stateMutability": "payable",
      "type": "function"
    },
    {
      "inputs": [
        {
          "internalType": "uint256",
          "name": "_taskId",
          "type": "uint256"
        }
      ],
      "name": "executeTask",
      "outputs": [],
      "stateMutability": "nonpayable",
      "type": "function"
    },
    {
      "inputs": [],
      "name": "getBalance",
      "outputs": [
        {
          "internalType": "uint256",
          "name": "",
          "type": "uint256"
        }
      ],
      "stateMutability": "view",
      "type": "function"
    },
    {
      "inputs": [
        {
          "internalType": "uint256",
          "name": "_taskId",
          "type": "uint256"
        }
      ],
      "name": "getTask",
      "outputs": [
        {
          "components": [
            {
              "internalType": "string",
              "name": "description",
              "type": "string"
            },
            {
              "internalType": "address",
              "name": "recipient",
              "type": "address"
            },
            {
              "internalType": "uint256",
              "name": "amount",
              "type": "uint256"
            },
            {
              "internalType": "bool",
              "name": "executed",
              "type": "bool"
            },
            {
              "internalType": "uint256",
              "name": "timestamp",
              "type": "uint256"
            }
          ],
          "internalType": "struct AgentVault.Task",
          "name": "",
          "type": "tuple"
        }
      ],
      "stateMutability": "view",
      "type": "function"
    },
    {
      "inputs": [],
      "name": "getTaskCount",
      "outputs": [
        {
          "internalType": "uint256",
          "name": "",
          "type": "uint256"
        }
      ],
      "stateMutability": "view",
      "type": "function"
    },
    {
      "inputs": [],
      "name": "owner",
      "outputs": [
        {
          "internalType": "address",
          "name": "",
          "type": "address"
        }
      ],
      "stateMutability": "view",
      "type": "function"
    },
    {
      "inputs": [
        {
          "internalType": "uint256",
          "name": "",
          "type": "uint256"
        }
      ],
      "name": "tasks",
      "outputs": [
        {
          "internalType": "string",
          "name": "description",
          "type": "string"
        },
        {
          "internalType": "address",
          "name": "recipient",
          "type": "address"
        },
        {
          "internalType": "uint256",
          "name": "amount",
          "type": "uint256"
        },
        {
          "internalType": "bool",
          "name": "executed",
          "type": "bool"
        },
        {
          "internalType": "uint256",
          "name": "timestamp",
          "type": "uint256"
        }
      ],
      "stateMutability": "view",
      "type": "function"
    },
    {
      "stateMutability": "payable",
      "type": "receive"
    }
  ],
  "bytecode": "0x608060405234801561001057600080fd5b50336000806101000a81548173ffffffffffffffffffffffffffffffffffffffff021916908373ffffffffffffffffffffffffffffffffffffffff1602179055506113c2806100606000396000f3fe60806040526004361061007f5760003560e01c80638da5cb5b1161004e5780638da5cb5b146101ab578063c17a340e146101d6578063ccd5011914610201578063d0e30db01461023e576100d4565b806312065fe0146100d95780631d65e77e146101045780636e3480c7146101415780638d9776721461016a576100d4565b366100d4573373ffffffffffffffffffffffffffffffffffffffff167f543ba50a5eec5e6178218e364b1d0f396157b3c8fa278522c2cb7fd99407d474346040516100ca91906109a9565b60405180910390a2005b600080fd5b3480156100e557600080fd5b506100ee610248565b6040516100fb91906109a9565b60405180910390f35b34801561011057600080fd5b5061012b60048036038101906101269190610a04565b610250565b6040516101389190610ba2565b60405180910390f35b34801561014d57600080fd5b5061016860048036038101906101639190610a04565b6103a3565b005b34801561017657600080fd5b50610191600480360381019061018c9190610a04565b6105e2565b6040516101a2959493929190610c2c565b60405180910390f35b3480156101b757600080fd5b506101c06106dd565b6040516101cd9190610c86565b60405180910390f35b3480156101e257600080fd5b506101eb610701565b6040516101f891906109a9565b60405180910390f35b34801561020d57600080fd5b5061022860048036038101906102239190610e02565b61070e565b60405161023591906109a9565b60405180910390f35b6102466108f9565b005b600047905090565b610258610949565b6001828154811061026c5761026b610e71565b5b90600052602060002090600502016040518060a001604052908160008201805461029590610ecf565b80601f01602080910402602001604051908101604052809291908181526020018280546102c190610ecf565b801561030e5780601f106102e35761010080835404028352916020019161030e565b820191906000526020600020905b8154815290600101906020018083116102f157829003601f168201915b505050505081526020016001820160009054906101000a900473ffffffffffffffffffffffffffffffffffffffff1673ffffffffffffffffffffffffffffffffffffffff1673ffffffffffffffffffffffffffffffffffffffff168152602001600282015481526020016003820160009054906101000a900460ff161515151581526020016004820154815250509050919050565b60008054906101000a900473ffffffffffffffffffffffffffffffffffffffff1673ffffffffffffffffffffffffffffffffffffffff163373ffffffffffffffffffffffffffffffffffffffff1614610431576040517f08c379a000000000000000000000000000000000000000000000000000000000815260040161042890610f4c565b60405180910390fd5b60006001828154811061044757610446610e71565b5b906000526020600020906005020190508060030160009054906101000a900460ff16156104a9576040517f08c379a00000000000000000000000000000000000000000000000000000000081526004016104a090610fb8565b60405180910390fd5b80600201544710156104f0576040517f08c379a00000000000000000000000000000000000000000000000000000000081526004016104e790611024565b60405180910390fd5b60018160030160006101000a81548160ff0219169083151502179055508060010160009054906101000a900473ffffffffffffffffffffffffffffffffffffffff1673ffffffffffffffffffffffffffffffffffffffff166108fc82600201549081150290604051600060405180830381858888f1935050505015801561057b573d6000803e3d6000fd5b50817f8358e1fdfdcb4b5330f8e46c6a66b5c7ac05f5152ec1d51faf56ef6d3b7d8bf58260010160009054906101000a900473ffffffffffffffffffffffffffffffffffffffff1683600201546040516105d6929190611044565b60405180910390a25050565b600181815481106105f257600080fd5b906000526020600020906005020160009150905080600001805461061590610ecf565b80601f016020809104026020016040519081016040528092919081815260200182805461064190610ecf565b801561068e5780601f106106635761010080835404028352916020019161068e565b820191906000526020600020905b81548152906001019060200180831161067157829003601f168201915b5050505050908060010160009054906101000a900473ffffffffffffffffffffffffffffffffffffffff16908060020154908060030160009054906101000a900460ff16908060040154905085565b60008054906101000a900473ffffffffffffffffffffffffffffffffffffffff1681565b6000600180549050905090565b60008060009054906101000a900473ffffffffffffffffffffffffffffffffffffffff1673ffffffffffffffffffffffffffffffffffffffff163373ffffffffffffffffffffffffffffffffffffffff161461079f576040517f08c379a000000000000000000000000000000000000000000000000000000000815260040161079690610f4c565b60405180910390fd5b60016040518060a001604052808681526020018573ffffffffffffffffffffffffffffffffffffffff168152602001848152602001600015158152602001428152509080600181540180825580915050600190039060005260206000209060050201600090919091909150600082015181600001908161081f9190611219565b5060208201518160010160006101000a81548173ffffffffffffffffffffffffffffffffffffffff021916908373ffffffffffffffffffffffffffffffffffffffff1602179055506040820151816002015560608201518160030160006101000a81548160ff0219169083151502179055506080820151816004015550506000600180805490506108b0919061131a565b9050807f4fd9515368c995a9e1ea8ad226f20427c8f4523a75c5b9481bdd7f358d8f666c8686866040516108e69392919061134e565b60405180910390a2809150509392505050565b3373ffffffffffffffffffffffffffffffffffffffff167f543ba50a5eec5e6178218e364b1d0f396157b3c8fa278522c2cb7fd99407d4743460405161093f91906109a9565b60405180910390a2565b6040518060a0016040528060608152602001600073ffffffffffffffffffffffffffffffffffffffff16815260200160008152602001600015158152602001600081525090565b6000819050919050565b6109a381610990565b82525050565b60006020820190506109be600083018461099a565b92915050565b6000604051905090565b600080fd5b600080fd5b6109e181610990565b81146109ec57600080fd5b50565b6000813590506109fe816109d8565b92915050565b600060208284031215610a1a57610a196109ce565b5b6000610a28848285016109ef565b91505092915050565b600081519050919050565b600082825260208201905092915050565b60005b83811015610a6b578082015181840152602081019050610a50565b60008484015250505050565b6000601f19601f8301169050919050565b6000610a9382610a31565b610a9d8185610a3c565b9350610aad818560208601610a4d565b610ab681610a77565b840191505092915050565b600073ffffffffffffffffffffffffffffffffffffffff82169050919050565b6000610aec82610ac1565b9050919050565b610afc81610ae1565b82525050565b610b0b81610990565b82525050565b60008115159050919050565b610b2681610b11565b82525050565b600060a0830160008301518482036000860152610b498282610a88565b9150506020830151610b5e6020860182610af3565b506040830151610b716040860182610b02565b506060830151610b846060860182610b1d565b506080830151610b976080860182610b02565b508091505092915050565b60006020820190508181036000830152610bbc8184610b2c565b905092915050565b600082825260208201905092915050565b6000610be082610a31565b610bea8185610bc4565b9350610bfa818560208601610a4d565b610c0381610a77565b840191505092915050565b610c1781610ae1565b82525050565b610c2681610b11565b82525050565b600060a0820190508181036000830152610c468188610bd5565b9050610c556020830187610c0e565b610c62604083018661099a565b610c6f6060830185610c1d565b610c7c608083018461099a565b9695505050505050565b6000602082019050610c9b6000830184610c0e565b92915050565b600080fd5b600080fd5b7f4e487b7100000000000000000000000000000000000000000000000000000000600052604160045260246000fd5b610ce382610a77565b810181811067ffffffffffffffff82111715610d0257610d01610cab565b5b80604052505050565b6000610d156109c4565b9050610d218282610cda565b919050565b600067ffffffffffffffff821115610d4157610d40610cab565b5b610d4a82610a77565b9050602081019050919050565b82818337600083830152505050565b6000610d79610d7484610d26565b610d0b565b905082815260208101848484011115610d9557610d94610ca6565b5b610da0848285610d57565b509392505050565b600082601f830112610dbd57610dbc610ca1565b5b8135610dcd848260208601610d66565b91505092915050565b610ddf81610ae1565b8114610dea57600080fd5b50565b600081359050610dfc81610dd6565b92915050565b600080600060608486031215610e1b57610e1a6109ce565b5b600084013567ffffffffffffffff811115610e3957610e386109d3565b5b610e4586828701610da8565b9350506020610e5686828701610ded565b9250506040610e67868287016109ef565b9150509250925092565b7f4e487b7100000000000000000000000000000000000000000000000000000000600052603260045260246000fd5b7f4e487b7100000000000000000000000000000000000000000000000000000000600052602260045260246000fd5b60006002820490506001821680610ee757607f821691505b602082108103610efa57610ef9610ea0565b5b50919050565b7f4e6f74206f776e65720000000000000000000000000000000000000000000000600082015250565b6000610f36600983610bc4565b9150610f4182610f00565b602082019050919050565b60006020820190508181036000830152610f6581610f29565b9050919050565b7f416c726561647920657865637574656400000000000000000000000000000000600082015250565b6000610fa2601083610bc4565b9150610fad82610f6c565b602082019050919050565b60006020820190508181036000830152610fd181610f95565b9050919050565b7f496e73756666696369656e742062616c616e6365000000000000000000000000600082015250565b600061100e601483610bc4565b915061101982610fd8565b602082019050919050565b6000602082019050818103600083015261103d81611001565b9050919050565b60006040820190506110596000830185610c0e565b611066602083018461099a565b9392505050565b60008190508160005260206000209050919050565b60006020601f8301049050919050565b600082821b905092915050565b6000600883026110cf7fffffffffffffffffffffffffffffffffffffffffffffffffffffffffffffffff82611092565b6110d98683611092565b95508019841693508086168417925050509392505050565b6000819050919050565b600061111661111161110c84610990565b6110f1565b610990565b9050919050565b6000819050919050565b611130836110fb565b61114461113c8261111d565b84845461109f565b825550505050565b600090565b61115961114c565b611164818484611127565b505050565b5b818110156111885761117d600082611151565b60018101905061116a565b5050565b601f8211156111cd5761119e8161106d565b6111a784611082565b810160208510156111b6578190505b6111ca6111c285611082565b830182611169565b50505b505050565b600082821c905092915050565b60006111f0600019846008026111d2565b1980831691505092915050565b600061120983836111df565b9150826002028217905092915050565b61122282610a31565b67ffffffffffffffff81111561123b5761123a610cab565b5b6112458254610ecf565b61125082828561118c565b600060209050601f8311600181146112835760008415611271578287015190505b61127b85826111fd565b8655506112e3565b601f1984166112918661106d565b60005b828110156112b957848901518255600182019150602085019450602081019050611294565b868310156112d657848901516112d2601f8916826111df565b8355505b6001600288020188555050505b505050505050565b7f4e487b7100000000000000000000000000000000000000000000000000000000600052601160045260246000fd5b600061132582610990565b915061133083610990565b9250828203905081811115611348576113476112eb565b5b92915050565b600060608201905081810360008301526113688186610bd5565b90506113776020830185610c0e565b611384604083018461099a565b94935050505056fea2646970667358221220df877c0b0912ca1d71d1b1d8d503060f1be3278bccc120aeff2d9ddc4951dfa864736f6c63430008130033",
  "linkReferences": {},
  "deployedLinkReferences": {}
}